:107000008BC1000067C0000009021200010100806E
:107010006409040000000000000012011001FF00DC
:107020000008C016DC050001010200011403550030
:107030005300420020006A0062006F006F0074007D
:1070400012036F0062006400650076002E0061008C
:107050007400040309048FEF98E08DBF9EBF1124D4
:107060001FBEA89584B7877F84BF88E10FB6F894C8
:1070700080936000109260000FBE11E0A0E0B1E0CC
:10708000E4E0F8E702C005900D92A230B107D9F70D
:1070900021E0A2E0B1E001C01D92AA33B207E1F7FE
:1070A0004EC2A82FB92F80E090E041E050EA6095F1
:1070B00030E009C02D9182279795879510F084279D
:1070C0009527305EC8F36F5FA8F30895EADF8D93CC
:1070D0009D930895CF93CFB7CF93DF93C3954C9BE8
:1070E000E9F74C9B0BC04C9B09C04C9B07C04C9BC9
:1070F00005C04C9B03C04C9B01C089C06F93C091DD
:107100001D01DD27CC5DDE4F2F9365E54C9B03C051
:107110002F916F91E6CF0F931F934F9320E040E1A3
:107120005F9309B1047104FB27F93F9350E03BE002
:1071300039C0147140642F77012F5F5F1EC0406813
:1071400019B114712F7752501FC0406409B12F77C5
:107150000471D1F15F5F00C023C0406219B12F7785
:10716000147191F15F5F00C025C004711027515068
:1071700012F45D5F0000115027952C3F19B1C8F63D
:1071800014710127015027952C3FC8F642274993D7
:1071900009B1047110274F73115027952C3FA8F6A1
:1071A0004695469519B1147179F00127015027953C
:1071B0002C3F98F66B5A60F3315009B1B0F600C01D
:1071C00011E01CBB002717C03B503195C31BD040BA
:1071D00011E01CBB0881033CF9F00B34E9F020916D
:1071E0001B011981110F1213EDCF093651F10D3228
:1071F00011F0013E39F7009322013F915F914F91C9
:107200001F910F912F916F91CCB3C0FD67CFDF918C
:10721000CF91CFBFCF91189520912201222369F3FE
:1072200010912001112339F534303AF130932001C7
:1072300020931C0110911D013BE0311B30931D0177
:107240001CC0009120010130B4F40AE53091000126
:1072500034FD14C000930001C0E1D1E013C0052744
:1072600010E000C000000BB91AC0052710E0221F73
:107270001DC010E021C04AE502C032ED432FC4E139
:10728000D0E032E01AB114615C9A0BB11AB954E142
:1072900020E865E320FF05270BB9279517951C3FCC
:1072A000F0F66695B8F7B1F720FF05270BB92795DB
:1072B00017951C3FD0F62795179517FF0527000057
:1072C0001C3F0BB9B0F629913A9519F70B7E109136
:1072D0002101110FC651D0400BB911F010931B01C1
:1072E00011E01CBB00611AB11B7E402F4B7E54E0A5
:1072F0005A95F1F70BB91AB94BB97FCF482788E0F7
:10730000942F969540FF03C0492F462701C0492F6F
:107310008150B1F7842F08959ECE0895DC01149614
:10732000ED91FC9115979C91892F8076803409F01E
:107330007EC011968C911197843A21F0823A11F017
:10734000833A29F4E03EF10510F081EC6CC097FD22
:1073500005C0843A09F06BC082E01EC0803A09F48F
:1073600061C0813AB1F480EC80930701109208016A
:1073700084E08093090180E280930A018EE180938A
:107380000B0185E980930C018FE080930D0187E06C
:107390004FC0823AA1F481E080930601F695FE2F5A
:1073A000EE27F795E795F0930501E093040180E857
:1073B00090E090930301809302018FEF39C0833AEC
:1073C00099F4F894F695FE2FEE27F795E79583E06C
:1073D00080935700E895789407B600FCFDCF81E1D3
:1073E00080935700E8951EC0853A59F480EC80934D
:1073F0000701F2BDE1BDF89A80B58093080182E0F3
:1074000017C0863A51F412968C91F2BDE1BD80BD51
:10741000FA9AF99AF999FECF05C0873A41F483E0C8
:107420008093060180EC8093070181E001C080E039
:1074300027E031E030931F0120931E010895209131
:107440000601213019F180E00895E0910401F091E6
:1074500005019F012F5F3F4F3093050120930401E9
:10746000E491ED938F5F209102013091030121504F
:1074700031093093030120930201209102013091E0
:107480000301232B29F4109206010895DC0180E00A
:107490008613DBCF089520910601223011F080E0A1
:1074A000089520910401309105014091020150910D
:1074B000030120583F4F241B350BDC01281B390BDF
:1074C00071E020C0F8944D915D910A0170935700CE
:1074D000E8951124789440910201509103014250A3
:1074E00051095093030140930201409102015091D0
:1074F0000301452B39F48091020190910301892BFE
:1075000049F0CDCFFD01E20FF31F4A2F481B46176C
:10751000C8F2F1CFF894E0910401F091050185E003
:1075200080935700E895789407B600FCFDCF81E181
:1075300080935700E8951092060181E0089540E09D
:10754000C0E0D0E0FE01849169EDD8DE482F21969D
:10755000CF3FFFE6DF07B1F7FE01C4912098289ADC
:10756000189B06C08C1304C02898E0E0F0E0099551
:107570002EE088E190E00FB6F894A8958093600023
:107580000FBE2093600085B7816085BF82E085BF14
:1075900032D1549A8FEFA895EFE9FFE03197F1F7D8
:1075A00000C000008150B9F75498789402C0A895A3
:1075B0001AD0809106018330D1F7F894549AE89854
:1075C00085B7816085BF85B78D7F85BF28E088E15D
:1075D00090E00FB6F894A895809360000FBE2093BA
:1075E00060000000FECFCF93DF93609120016350D5
:1075F00067FD9BC080911D01CCE0D0E0C81BD10984
:10760000CC5DDE4F80911C018D3209F07DC0683069
:1076100009F089C083EC809310018AE58093000112
:1076200010920F018881807619F0CE0177DE59C063
:107630009A81109219018981811106C010921A0154
:1076400029E131E082E049C0853019F490932101AD
:1076500038C0863081F58B81813019F48AE190E75A
:1076600004C0823041F488E090E790931F0180933A
:107670001E0182E11CC08330C9F4911108C082E56B
:1076800090E790931F0180931E0184E010C0913019
:1076900019F480E490E7E9CF923041F48CE290E76E
:1076A00090931F0180931E0184E101C080E090E46B
:1076B00090930F0116C0883069F0893029F49093B7
:1076C000230129E131E004C029E131E08A3021F0D1
:1076D00080E003C023E231E081E030931F0120937A
:1076E0001E018F3F39F4988197FD8E8190E8909329
:1076F0000F0107C09F81911104C09E81981708F463
:10770000892F809301010FC080910F0187FF0BC06B
:10771000CE01C1DE8F3F21F48EE18093000103C0D2
:10772000811110920101109220018091000184FFCB
:1077300055C0809101018F3F09F450C0C82F893096
:1077400008F0C8E08C1B809301018091100198E83B
:10775000892780931001CC2381F180910F0187FF4D
:1077600006C06C2F81E191E06ADEC82F24C0209111
:107770001E0130911F0186FF0BC0F901A1E1B1E0AC
:107780008C2F8A0F94919D9331968A13FBCF09C059
:10779000D901E1E1F1E08C2F8E0F9D9191938E1331
:1077A000FCCF2F5F3F4F8C2F8150280F311D30931E
:1077B0001F0120931E01C93058F46C2F81E191E024
:1077C00085DCCC5FCC3041F08FEF8093010104C0A9
:1077D0008FEF80930101CEE1C093000184E199B164
:1077E000947131F48150D9F71092210110921B014C
:1077F000DF91CF910895E9E6F0E080818260808397
:04780000E89A089565
:027804005AFF29
:040000030000700089
:00000001FF
